{
  "contractName": "Artwork",
  "abi": [
    {
      "anonymous": false,
      "inputs": [
        {
          "indexed": false,
          "internalType": "string",
          "name": "id",
          "type": "string"
        },
        {
          "indexed": false,
          "internalType": "address",
          "name": "previousOwner",
          "type": "address"
        },
        {
          "indexed": false,
          "internalType": "address",
          "name": "newOwner",
          "type": "address"
        }
      ],
      "name": "NFTBought",
      "type": "event"
    },
    {
      "anonymous": false,
      "inputs": [
        {
          "indexed": false,
          "internalType": "string",
          "name": "id",
          "type": "string"
        },
        {
          "indexed": false,
          "internalType": "address",
          "name": "owner",
          "type": "address"
        }
      ],
      "name": "NFTMinted",
      "type": "event"
    },
    {
      "inputs": [
        {
          "internalType": "string",
          "name": "id",
          "type": "string"
        },
        {
          "internalType": "uint256",
          "name": "price",
          "type": "uint256"
        }
      ],
      "name": "mintNFT",
      "outputs": [],
      "stateMutability": "nonpayable",
      "type": "function"
    },
    {
      "inputs": [
        {
          "internalType": "string",
          "name": "id",
          "type": "string"
        }
      ],
      "name": "buyNFT",
      "outputs": [],
      "stateMutability": "payable",
      "type": "function",
      "payable": true
    },
    {
      "inputs": [
        {
          "internalType": "string",
          "name": "id",
          "type": "string"
        },
        {
          "internalType": "uint256",
          "name": "newPrice",
          "type": "uint256"
        }
      ],
      "name": "resellNFT",
      "outputs": [],
      "stateMutability": "nonpayable",
      "type": "function"
    },
    {
      "inputs": [
        {
          "internalType": "address",
          "name": "wallet",
          "type": "address"
        }
      ],
      "name": "getWalletTransactions",
      "outputs": [
        {
          "components": [
            {
              "internalType": "string",
              "name": "nftId",
              "type": "string"
            },
            {
              "internalType": "address",
              "name": "previousOwner",
              "type": "address"
            },
            {
              "internalType": "address",
              "name": "newOwner",
              "type": "address"
            },
            {
              "internalType": "uint256",
              "name": "price",
              "type": "uint256"
            }
          ],
          "internalType": "struct Artwork.Transaction[]",
          "name": "",
          "type": "tuple[]"
        }
      ],
      "stateMutability": "view",
      "type": "function",
      "constant": true
    },
    {
      "inputs": [
        {
          "internalType": "string",
          "name": "id",
          "type": "string"
        }
      ],
      "name": "getNFTTransactions",
      "outputs": [
        {
          "components": [
            {
              "internalType": "string",
              "name": "nftId",
              "type": "string"
            },
            {
              "internalType": "address",
              "name": "previousOwner",
              "type": "address"
            },
            {
              "internalType": "address",
              "name": "newOwner",
              "type": "address"
            },
            {
              "internalType": "uint256",
              "name": "price",
              "type": "uint256"
            }
          ],
          "internalType": "struct Artwork.Transaction[]",
          "name": "",
          "type": "tuple[]"
        }
      ],
      "stateMutability": "view",
      "type": "function",
      "constant": true
    }
  ],
  "bytecode": "0x608060405234801561001057600080fd5b5061180d806100206000396000f3fe60806040526004361061004a5760003560e01c8063080787921461004f578063145045e6146100785780635afa3a72146100b55780638191e3c6146100de5780638d0123001461011b575b600080fd5b34801561005b57600080fd5b506100766004803603810190610071919061106b565b610137565b005b34801561008457600080fd5b5061009f600480360381019061009a9190611125565b610253565b6040516100ac919061131d565b60405180910390f35b3480156100c157600080fd5b506100dc60048036038101906100d7919061106b565b610439565b005b3480156100ea57600080fd5b506101056004803603810190610100919061133f565b6105ec565b604051610112919061131d565b60405180910390f35b6101356004803603810190610130919061133f565b6107b1565b005b3373ffffffffffffffffffffffffffffffffffffffff1660008360405161015e91906113c4565b908152602001604051809103902060010160009054906101000a900473ffffffffffffffffffffffffffffffffffffffff1673ffffffffffffffffffffffffffffffffffffffff16146101e6576040517f08c379a00000000000000000000000000000000000000000000000000000000081526004016101dd9061145e565b60405180910390fd5b60008111610229576040517f08c379a0000000000000000000000000000000000000000000000000000000008152600401610220906114ca565b60405180910390fd5b8060008360405161023a91906113c4565b9081526020016040518091039020600201819055505050565b6060600160008373ffffffffffffffffffffffffffffffffffffffff1673ffffffffffffffffffffffffffffffffffffffff168152602001908152602001600020805480602002602001604051908101604052809291908181526020016000905b8282101561042e57838290600052602060002090600402016040518060800160405290816000820180546102e790611519565b80601f016020809104026020016040519081016040528092919081815260200182805461031390611519565b80156103605780601f1061033557610100808354040283529160200191610360565b820191906000526020600020905b81548152906001019060200180831161034357829003601f168201915b505050505081526020016001820160009054906101000a900473ffffffffffffffffffffffffffffffffffffffff1673ffffffffffffffffffffffffffffffffffffffff1673ffffffffffffffffffffffffffffffffffffffff1681526020016002820160009054906101000a900473ffffffffffffffffffffffffffffffffffffffff1673ffffffffffffffffffffffffffffffffffffffff1673ffffffffffffffffffffffffffffffffffffffff168152602001600382015481525050815260200190600101906102b4565b505050509050919050565b600073ffffffffffffffffffffffffffffffffffffffff1660008360405161046191906113c4565b908152602001604051809103902060010160009054906101000a900473ffffffffffffffffffffffffffffffffffffffff1673ffffffffffffffffffffffffffffffffffffffff16146104e9576040517f08c379a00000000000000000000000000000000000000000000000000000000081526004016104e090611597565b60405180910390fd5b600060405180606001604052808481526020013373ffffffffffffffffffffffffffffffffffffffff1681526020018381525090508060008460405161052f91906113c4565b90815260200160405180910390206000820151816000019080519060200190610559929190610e38565b5060208201518160010160006101000a81548173ffffffffffffffffffffffffffffffffffffffff021916908373ffffffffffffffffffffffffffffffffffffffff160217905550604082015181600201559050507fe8c59269c4cb46107d31c26c016423468182b6aeaa0db3d1422165dd7f37d11983336040516105df9291906115ff565b60405180910390a1505050565b60606002826040516105fe91906113c4565b9081526020016040518091039020805480602002602001604051908101604052809291908181526020016000905b828210156107a6578382906000526020600020906004020160405180608001604052908160008201805461065f90611519565b80601f016020809104026020016040519081016040528092919081815260200182805461068b90611519565b80156106d85780601f106106ad576101008083540402835291602001916106d8565b820191906000526020600020905b8154815290600101906020018083116106bb57829003601f168201915b505050505081526020016001820160009054906101000a900473ffffffffffffffffffffffffffffffffffffffff1673ffffffffffffffffffffffffffffffffffffffff1673ffffffffffffffffffffffffffffffffffffffff1681526020016002820160009054906101000a900473ffffffffffffffffffffffffffffffffffffffff1673ffffffffffffffffffffffffffffffffffffffff1673ffffffffffffffffffffffffffffffffffffffff1681526020016003820154815250508152602001906001019061062c565b505050509050919050565b600073ffffffffffffffffffffffffffffffffffffffff166000826040516107d991906113c4565b908152602001604051809103902060010160009054906101000a900473ffffffffffffffffffffffffffffffffffffffff1673ffffffffffffffffffffffffffffffffffffffff161415610862576040517f08c379a00000000000000000000000000000000000000000000000000000000081526004016108599061167b565b60405180910390fd5b3373ffffffffffffffffffffffffffffffffffffffff1660008260405161088991906113c4565b908152602001604051809103902060010160009054906101000a900473ffffffffffffffffffffffffffffffffffffffff1673ffffffffffffffffffffffffffffffffffffffff161415610912576040517f08c379a0000000000000000000000000000000000000000000000000000000008152600401610909906116e7565b60405180910390fd5b60008160405161092291906113c4565b908152602001604051809103902060020154341015610976576040517f08c379a000000000000000000000000000000000000000000000000000000000815260040161096d90611779565b60405180910390fd5b6000808260405161098791906113c4565b908152602001604051809103902060010160009054906101000a900473ffffffffffffffffffffffffffffffffffffffff1690506000339050806000846040516109d191906113c4565b908152602001604051809103902060010160006101000a81548173ffffffffffffffffffffffffffffffffffffffff021916908373ffffffffffffffffffffffffffffffffffffffff1602179055508173ffffffffffffffffffffffffffffffffffffffff166108fc349081150290604051600060405180830381858888f19350505050158015610a66573d6000803e3d6000fd5b50600060405180608001604052808581526020018473ffffffffffffffffffffffffffffffffffffffff1681526020018373ffffffffffffffffffffffffffffffffffffffff168152602001348152509050600160008473ffffffffffffffffffffffffffffffffffffffff1673ffffffffffffffffffffffffffffffffffffffff1681526020019081526020016000208190806001815401808255809150506001900390600052602060002090600402016000909190919091506000820151816000019080519060200190610b3d929190610e38565b5060208201518160010160006101000a81548173ffffffffffffffffffffffffffffffffffffffff021916908373ffffffffffffffffffffffffffffffffffffffff16021790555060408201518160020160006101000a81548173ffffffffffffffffffffffffffffffffffffffff021916908373ffffffffffffffffffffffffffffffffffffffff160217905550606082015181600301555050600160008373ffffffffffffffffffffffffffffffffffffffff1673ffffffffffffffffffffffffffffffffffffffff1681526020019081526020016000208190806001815401808255809150506001900390600052602060002090600402016000909190919091506000820151816000019080519060200190610c5d929190610e38565b5060208201518160010160006101000a81548173ffffffffffffffffffffffffffffffffffffffff021916908373ffffffffffffffffffffffffffffffffffffffff16021790555060408201518160020160006101000a81548173ffffffffffffffffffffffffffffffffffffffff021916908373ffffffffffffffffffffffffffffffffffffffff160217905550606082015181600301555050600284604051610d0891906113c4565b90815260200160405180910390208190806001815401808255809150506001900390600052602060002090600402016000909190919091506000820151816000019080519060200190610d5c929190610e38565b5060208201518160010160006101000a81548173ffffffffffffffffffffffffffffffffffffffff021916908373ffffffffffffffffffffffffffffffffffffffff16021790555060408201518160020160006101000a81548173ffffffffffffffffffffffffffffffffffffffff021916908373ffffffffffffffffffffffffffffffffffffffff1602179055506060820151816003015550507f9b253ac7e04b8dbf2f613ccb6d6e2b5ee7378192e0e04c2efe19e3941823a4d7848484604051610e2a93929190611799565b60405180910390a150505050565b828054610e4490611519565b90600052602060002090601f016020900481019282610e665760008555610ead565b82601f10610e7f57805160ff1916838001178555610ead565b82800160010185558215610ead579182015b82811115610eac578251825591602001919060010190610e91565b5b509050610eba9190610ebe565b5090565b5b80821115610ed7576000816000905550600101610ebf565b5090565b6000604051905090565b600080fd5b600080fd5b600080fd5b600080fd5b6000601f19601f8301169050919050565b7f4e487b7100000000000000000000000000000000000000000000000000000000600052604160045260246000fd5b610f4282610ef9565b810181811067ffffffffffffffff82111715610f6157610f60610f0a565b5b80604052505050565b6000610f74610edb565b9050610f808282610f39565b919050565b600067ffffffffffffffff821115610fa057610f9f610f0a565b5b610fa982610ef9565b9050602081019050919050565b82818337600083830152505050565b6000610fd8610fd384610f85565b610f6a565b905082815260208101848484011115610ff457610ff3610ef4565b5b610fff848285610fb6565b509392505050565b600082601f83011261101c5761101b610eef565b5b813561102c848260208601610fc5565b91505092915050565b6000819050919050565b61104881611035565b811461105357600080fd5b50565b6000813590506110658161103f565b92915050565b6000806040838503121561108257611081610ee5565b5b600083013567ffffffffffffffff8111156110a05761109f610eea565b5b6110ac85828601611007565b92505060206110bd85828601611056565b9150509250929050565b600073ffffffffffffffffffffffffffffffffffffffff82169050919050565b60006110f2826110c7565b9050919050565b611102816110e7565b811461110d57600080fd5b50565b60008135905061111f816110f9565b92915050565b60006020828403121561113b5761113a610ee5565b5b600061114984828501611110565b91505092915050565b600081519050919050565b600082825260208201905092915050565b6000819050602082019050919050565b600081519050919050565b600082825260208201905092915050565b60005b838110156111b857808201518184015260208101905061119d565b838111156111c7576000848401525b50505050565b60006111d88261117e565b6111e28185611189565b93506111f281856020860161119a565b6111fb81610ef9565b840191505092915050565b61120f816110e7565b82525050565b61121e81611035565b82525050565b6000608083016000830151848203600086015261124182826111cd565b91505060208301516112566020860182611206565b5060408301516112696040860182611206565b50606083015161127c6060860182611215565b508091505092915050565b60006112938383611224565b905092915050565b6000602082019050919050565b60006112b382611152565b6112bd818561115d565b9350836020820285016112cf8561116e565b8060005b8581101561130b57848403895281516112ec8582611287565b94506112f78361129b565b925060208a019950506001810190506112d3565b50829750879550505050505092915050565b6000602082019050818103600083015261133781846112a8565b905092915050565b60006020828403121561135557611354610ee5565b5b600082013567ffffffffffffffff81111561137357611372610eea565b5b61137f84828501611007565b91505092915050565b600081905092915050565b600061139e8261117e565b6113a88185611388565b93506113b881856020860161119a565b80840191505092915050565b60006113d08284611393565b915081905092915050565b600082825260208201905092915050565b7f596f75206d757374206f776e20746865204e465420746f20726573656c6c206960008201527f7400000000000000000000000000000000000000000000000000000000000000602082015250565b60006114486021836113db565b9150611453826113ec565b604082019050919050565b600060208201905081810360008301526114778161143b565b9050919050565b7f5072696365206d7573742062652067726561746572207468616e207a65726f00600082015250565b60006114b4601f836113db565b91506114bf8261147e565b602082019050919050565b600060208201905081810360008301526114e3816114a7565b9050919050565b7f4e487b7100000000000000000000000000000000000000000000000000000000600052602260045260246000fd5b6000600282049050600182168061153157607f821691505b60208210811415611545576115446114ea565b5b50919050565b7f4e46542077697468207468697320494420616c72656164792065786973747300600082015250565b6000611581601f836113db565b915061158c8261154b565b602082019050919050565b600060208201905081810360008301526115b081611574565b9050919050565b60006115c28261117e565b6115cc81856113db565b93506115dc81856020860161119a565b6115e581610ef9565b840191505092915050565b6115f9816110e7565b82525050565b6000604082019050818103600083015261161981856115b7565b905061162860208301846115f0565b9392505050565b7f4e46542077697468207468697320494420646f6573206e6f7420657869737400600082015250565b6000611665601f836113db565b91506116708261162f565b602082019050919050565b6000602082019050818103600083015261169481611658565b9050919050565b7f596f7520616c7265616479206f776e2074686973204e46540000000000000000600082015250565b60006116d16018836113db565b91506116dc8261169b565b602082019050919050565b60006020820190508181036000830152611700816116c4565b9050919050565b7f53656e742076616c7565206d75737420626520657175616c20746f206f72206560008201527f786365656420746865204e465420707269636500000000000000000000000000602082015250565b60006117636033836113db565b915061176e82611707565b604082019050919050565b6000602082019050818103600083015261179281611756565b9050919050565b600060608201905081810360008301526117b381866115b7565b90506117c260208301856115f0565b6117cf60408301846115f0565b94935050505056fea2646970667358221220082c744181959f2b425e2c092b5112dcf09c1c448ed17b8a705cb6414d41c72264736f6c634300080b0033",
  "immutableReferences": {},
  "source": "// SPDX-License-Identifier: MIT \r\npragma solidity ^0.8.0;\r\n\r\ncontract Artwork {\r\n    struct NFT {\r\n        string id;\r\n        address owner;\r\n        uint256 price; // Add price property\r\n    }\r\n\r\n    struct Transaction {\r\n        string nftId;\r\n        address previousOwner;\r\n        address newOwner;\r\n        uint256 price;\r\n    }\r\n\r\n    mapping(string => NFT) private nfts;\r\n    mapping(address => Transaction[]) private walletTransactions;\r\n    mapping(string => Transaction[]) private nftTransactions;\r\n\r\n    event NFTMinted(string id, address owner);\r\n    event NFTBought(string id, address previousOwner, address newOwner);\r\n\r\n    function mintNFT(string memory id, uint256 price) public {\r\n        require(nfts[id].owner == address(0), \"NFT with this ID already exists\");\r\n        \r\n        NFT memory newNFT = NFT(id, msg.sender, price); // Include price when minting\r\n        nfts[id] = newNFT;\r\n        \r\n        emit NFTMinted(id, msg.sender);\r\n    }\r\n\r\n    function buyNFT(string memory id) public payable {\r\n        require(nfts[id].owner != address(0), \"NFT with this ID does not exist\");\r\n        require(nfts[id].owner != msg.sender, \"You already own this NFT\");\r\n        require(msg.value >= nfts[id].price, \"Sent value must be equal to or exceed the NFT price\"); // Check price\r\n\r\n        address previousOwner = nfts[id].owner;\r\n        address newOwner = msg.sender;\r\n\r\n        nfts[id].owner = newOwner;\r\n\r\n        // Transfer the ownership of the NFT\r\n        payable(previousOwner).transfer(msg.value);\r\n\r\n        // Record the transaction\r\n        Transaction memory transaction = Transaction(id, previousOwner, newOwner, msg.value);\r\n        walletTransactions[previousOwner].push(transaction);\r\n        walletTransactions[newOwner].push(transaction);\r\n        nftTransactions[id].push(transaction);\r\n\r\n        emit NFTBought(id, previousOwner, newOwner);\r\n    }\r\n\r\n    function resellNFT(string memory id, uint256 newPrice) public {\r\n        require(nfts[id].owner == msg.sender, \"You must own the NFT to resell it\");\r\n        require(newPrice > 0, \"Price must be greater than zero\");\r\n\r\n        nfts[id].price = newPrice;\r\n    }\r\n\r\n    function getWalletTransactions(address wallet) public view returns (Transaction[] memory) {\r\n        return walletTransactions[wallet];\r\n    }\r\n\r\n    function getNFTTransactions(string memory id) public view returns (Transaction[] memory) {\r\n        return nftTransactions[id];\r\n    }\r\n}\r\n",
  "sourcePath": "C:\\Users\\ngphu\\Downloads\\Code\\BitBrushNFT\\smart_contract\\contracts\\Artwork.sol",
  "compiler": {
    "name": "solc",
    "version": "0.8.11+commit.d7f03943.Emscripten.clang"
  },
  "schemaVersion": "3.4.16",
  "updatedAt": "2024-03-27T19:27:15.856Z",
  "networkType": "ethereum",
  "devdoc": {
    "kind": "dev",
    "methods": {},
    "version": 1
  },
  "userdoc": {
    "kind": "user",
    "methods": {},
    "version": 1
  }
}