{
    "contractName": "NFTImages",
    "abi": [
        {
            "anonymous": false,
            "inputs": [
                {
                    "indexed": false,
                    "internalType": "address",
                    "name": "buyer",
                    "type": "address"
                },
                {
                    "indexed": false,
                    "internalType": "uint256",
                    "name": "tokenId",
                    "type": "uint256"
                },
                {
                    "indexed": false,
                    "internalType": "uint256",
                    "name": "price",
                    "type": "uint256"
                }
            ],
            "name": "NFTBought",
            "type": "event"
        },
        {
            "inputs": [
                {
                    "internalType": "uint256",
                    "name": "tokenId",
                    "type": "uint256"
                }
            ],
            "name": "buyNFTImageById",
            "outputs": [],
            "stateMutability": "payable",
            "type": "function",
            "payable": true
        },
        {
            "inputs": [
                {
                    "internalType": "uint256",
                    "name": "tokenId",
                    "type": "uint256"
                },
                {
                    "internalType": "uint256",
                    "name": "price",
                    "type": "uint256"
                }
            ],
            "name": "mintNFTImage",
            "outputs": [],
            "stateMutability": "nonpayable",
            "type": "function"
        },
        {
            "inputs": [],
            "name": "getMintedNFTs",
            "outputs": [
                {
                    "internalType": "uint256[]",
                    "name": "",
                    "type": "uint256[]"
                }
            ],
            "stateMutability": "view",
            "type": "function",
            "constant": true
        },
        {
            "inputs": [
                {
                    "internalType": "uint256",
                    "name": "tokenId",
                    "type": "uint256"
                }
            ],
            "name": "getNFTOwner",
            "outputs": [
                {
                    "internalType": "address",
                    "name": "",
                    "type": "address"
                }
            ],
            "stateMutability": "view",
            "type": "function",
            "constant": true
        },
        {
            "inputs": [
                {
                    "internalType": "uint256",
                    "name": "tokenId",
                    "type": "uint256"
                }
            ],
            "name": "getNFTPrice",
            "outputs": [
                {
                    "internalType": "uint256",
                    "name": "",
                    "type": "uint256"
                }
            ],
            "stateMutability": "view",
            "type": "function",
            "constant": true
        },
        {
            "inputs": [],
            "name": "getWalletInfo",
            "outputs": [
                {
                    "internalType": "address",
                    "name": "",
                    "type": "address"
                },
                {
                    "internalType": "uint256",
                    "name": "",
                    "type": "uint256"
                }
            ],
            "stateMutability": "view",
            "type": "function",
            "constant": true
        }
    ],
    "bytecode": "0x608060405234801561001057600080fd5b50610bc2806100206000396000f3fe6080604052600436106100555760003560e01c806377bf44ea1461005a5780638b0464721461008557806392976179146100ae578063c352dae2146100eb578063d6f2d82714610117578063deaea2e314610133575b600080fd5b34801561006657600080fd5b5061006f610170565b60405161007c91906107bb565b60405180910390f35b34801561009157600080fd5b506100ac60048036038101906100a7919061080e565b61032a565b005b3480156100ba57600080fd5b506100d560048036038101906100d0919061084e565b610438565b6040516100e2919061088a565b60405180910390f35b3480156100f757600080fd5b50610100610455565b60405161010e9291906108e6565b60405180910390f35b610131600480360381019061012c919061084e565b610479565b005b34801561013f57600080fd5b5061015a6004803603810190610155919061084e565b6106b7565b604051610167919061090f565b60405180910390f35b606060006064905060008167ffffffffffffffff8111156101945761019361092a565b5b6040519080825280602002602001820160405280156101c25781602001602082028036833780820191505090505b5090506000805b8381101561027957600073ffffffffffffffffffffffffffffffffffffffff1660008083815260200190815260200160002060009054906101000a900473ffffffffffffffffffffffffffffffffffffffff1673ffffffffffffffffffffffffffffffffffffffff1614610266578083838151811061024b5761024a610959565b5b6020026020010181815250508180610262906109b7565b9250505b8080610271906109b7565b9150506101c9565b5060008167ffffffffffffffff8111156102965761029561092a565b5b6040519080825280602002602001820160405280156102c45781602001602082028036833780820191505090505b50905060005b8281101561031f578381815181106102e5576102e4610959565b5b6020026020010151828281518110610300576102ff610959565b5b6020026020010181815250508080610317906109b7565b9150506102ca565b508094505050505090565b600073ffffffffffffffffffffffffffffffffffffffff1660008084815260200190815260200160002060009054906101000a900473ffffffffffffffffffffffffffffffffffffffff1673ffffffffffffffffffffffffffffffffffffffff16146103cb576040517f08c379a00000000000000000000000000000000000000000000000000000000081526004016103c290610a5d565b60405180910390fd5b3360008084815260200190815260200160002060006101000a81548173ffffffffffffffffffffffffffffffffffffffff021916908373ffffffffffffffffffffffffffffffffffffffff1602179055508060016000848152602001908152602001600020819055505050565b600060016000838152602001908152602001600020549050919050565b600080333373ffffffffffffffffffffffffffffffffffffffff1631915091509091565b600073ffffffffffffffffffffffffffffffffffffffff1660008083815260200190815260200160002060009054906101000a900473ffffffffffffffffffffffffffffffffffffffff1673ffffffffffffffffffffffffffffffffffffffff16141561051b576040517f08c379a000000000000000000000000000000000000000000000000000000000815260040161051290610ac9565b60405180910390fd5b6001600082815260200190815260200160002054341015610571576040517f08c379a000000000000000000000000000000000000000000000000000000000815260040161056890610b35565b60405180910390fd5b600080600083815260200190815260200160002060009054906101000a900473ffffffffffffffffffffffffffffffffffffffff16905060003390506000600160008581526020019081526020016000205490508160008086815260200190815260200160002060006101000a81548173ffffffffffffffffffffffffffffffffffffffff021916908373ffffffffffffffffffffffffffffffffffffffff160217905550600060016000868152602001908152602001600020819055508273ffffffffffffffffffffffffffffffffffffffff166108fc829081150290604051600060405180830381858888f19350505050158015610675573d6000803e3d6000fd5b507f38bb180d23818aef357ad4b3806bac3fa13c3492c0ac9d1727381fb2422aaada8285836040516106a993929190610b55565b60405180910390a150505050565b600080600083815260200190815260200160002060009054906101000a900473ffffffffffffffffffffffffffffffffffffffff169050919050565b600081519050919050565b600082825260208201905092915050565b6000819050602082019050919050565b6000819050919050565b6107328161071f565b82525050565b60006107448383610729565b60208301905092915050565b6000602082019050919050565b6000610768826106f3565b61077281856106fe565b935061077d8361070f565b8060005b838110156107ae5781516107958882610738565b97506107a083610750565b925050600181019050610781565b5085935050505092915050565b600060208201905081810360008301526107d5818461075d565b905092915050565b600080fd5b6107eb8161071f565b81146107f657600080fd5b50565b600081359050610808816107e2565b92915050565b60008060408385031215610825576108246107dd565b5b6000610833858286016107f9565b9250506020610844858286016107f9565b9150509250929050565b600060208284031215610864576108636107dd565b5b6000610872848285016107f9565b91505092915050565b6108848161071f565b82525050565b600060208201905061089f600083018461087b565b92915050565b600073ffffffffffffffffffffffffffffffffffffffff82169050919050565b60006108d0826108a5565b9050919050565b6108e0816108c5565b82525050565b60006040820190506108fb60008301856108d7565b610908602083018461087b565b9392505050565b600060208201905061092460008301846108d7565b92915050565b7f4e487b7100000000000000000000000000000000000000000000000000000000600052604160045260246000fd5b7f4e487b7100000000000000000000000000000000000000000000000000000000600052603260045260246000fd5b7f4e487b7100000000000000000000000000000000000000000000000000000000600052601160045260246000fd5b60006109c28261071f565b91507fffffffffffffffffffffffffffffffffffffffffffffffffffffffffffffffff8214156109f5576109f4610988565b5b600182019050919050565b600082825260208201905092915050565b7f4e465420616c7265616479206578697374730000000000000000000000000000600082015250565b6000610a47601283610a00565b9150610a5282610a11565b602082019050919050565b60006020820190508181036000830152610a7681610a3a565b9050919050565b7f4e465420646f6573206e6f742065786973740000000000000000000000000000600082015250565b6000610ab3601283610a00565b9150610abe82610a7d565b602082019050919050565b60006020820190508181036000830152610ae281610aa6565b9050919050565b7f496e73756666696369656e742066756e64730000000000000000000000000000600082015250565b6000610b1f601283610a00565b9150610b2a82610ae9565b602082019050919050565b60006020820190508181036000830152610b4e81610b12565b9050919050565b6000606082019050610b6a60008301866108d7565b610b77602083018561087b565b610b84604083018461087b565b94935050505056fea2646970667358221220f9b76b451076d08a7fb05ef5d4d0422eb58dd2828f269a5e8318962504d7af4764736f6c634300080b0033",
    "immutableReferences": {},
    "source": "// SPDX-License-Identifier: MIT\r\npragma solidity >=0.4.22 <0.9.0;\r\n\r\ncontract NFTImages {\r\n    mapping(uint256 => address) private nftOwners;\r\n    mapping(uint256 => uint256) private nftPrices;\r\n    \r\n    event NFTBought(address buyer, uint256 tokenId, uint256 price);\r\n    \r\n    function buyNFTImageById(uint256 tokenId) public payable {\r\n        require(nftOwners[tokenId] != address(0), \"NFT does not exist\");\r\n        require(msg.value >= nftPrices[tokenId], \"Insufficient funds\");\r\n        \r\n        address previousOwner = nftOwners[tokenId];\r\n        address buyer = msg.sender;\r\n        uint256 price = nftPrices[tokenId];\r\n        \r\n        nftOwners[tokenId] = buyer;\r\n        nftPrices[tokenId] = 0;\r\n        \r\n        payable(previousOwner).transfer(price);\r\n        \r\n        emit NFTBought(buyer, tokenId, price);\r\n    }\r\n\r\n        function mintNFTImage(uint256 tokenId, uint256 price) public {\r\n        require(nftOwners[tokenId] == address(0), \"NFT already exists\");\r\n        \r\n        nftOwners[tokenId] = msg.sender;\r\n        nftPrices[tokenId] = price;\r\n    }\r\n\r\n    function getMintedNFTs() public view returns (uint256[] memory) {\r\n        uint256 totalSupply = 100; // Replace 100 with the actual total supply value\r\n        uint256[] memory tokenIds = new uint256[](totalSupply);\r\n        uint256 count = 0;\r\n        \r\n        for (uint256 i = 0; i < totalSupply; i++) {\r\n            if (nftOwners[i] != address(0)) {\r\n                tokenIds[count] = i;\r\n                count++;\r\n            }\r\n        }\r\n        \r\n        uint256[] memory mintedNFTs = new uint256[](count);\r\n        \r\n        for (uint256 i = 0; i < count; i++) {\r\n            mintedNFTs[i] = tokenIds[i];\r\n        }\r\n        \r\n        return mintedNFTs;\r\n    }\r\n    \r\n    function getNFTOwner(uint256 tokenId) public view returns (address) {\r\n        return nftOwners[tokenId];\r\n    }\r\n\r\n    function getNFTPrice(uint256 tokenId) public view returns (uint256) {\r\n        return nftPrices[tokenId];\r\n    }\r\n\r\n    function getWalletInfo() public view returns (address, uint256) {\r\n        return (msg.sender, msg.sender.balance);\r\n    }\r\n}",
    "sourcePath": "C:\\Users\\ngphu\\Downloads\\Code\\BitBrushNFT\\Frontend\\contracts\\NFTImages.sol",
    "compiler": {
        "name": "solc",
        "version": "0.8.11+commit.d7f03943.Emscripten.clang"
    },
    "schemaVersion": "3.4.16",
    "updatedAt": "2024-03-25T09:55:29.403Z",
    "networkType": "ethereum",
    "devdoc": {
        "kind": "dev",
        "methods": {},
        "version": 1
    },
    "userdoc": {
        "kind": "user",
        "methods": {},
        "version": 1
    }
}